:100000000C94F0000C9418010C9418010C94180135
:100010000C9418010C9418010C9418010C941801FC
:100020000C9418010C9418010C9418010C941801EC
:100030000C9418010C9418010C9418010C941801DC
:100040000C94A40E0C9418010C947C050C94560589
:100050000C9418010C9418010C9418010C941801BC
:100060000C94AE050C94180100407A10F35A00A0CD
:10007000724E18090010A5D4E80000E87648170071
:1000800000E40B54020000CA9A3B000000E1F505B1
:10009000000080969800000040420F000000A086FB
:1000A00001000000102700000000E803000000002D
:1000B0006400000000000A000000000001000000D1
:1000C00000002C76D888DC674F0823DFC1DFAE59EB
:1000D000E1B1B796E5E3E453C63AE651997696E87E
:1000E000E6C28426EB898C9B62ED407C6FFCEFBC02
:1000F0009C9F40F2BAA56FA5F490055A2AF75C932D
:100100006B6CF9676DC11BFCE0E40D47FEF520E662
:10011000B500D0ED902E0300943577050080841E45
:10012000080000204E0A000000C80C333333330FA0
:10013000986E12831141EF8D2114893BE65516CF3D
:10014000FEE6DB18D1844B381BF77C1D901DA4BB49
:10015000E424203284725E228100C9F124ECA1E5FE
:100160003D27005EBCE2613FDD83C29C7E20A3FD93
:100170001F41009D23BE46DB65F88C11AF32CA5784
:10018000E9740000000800020100000304070000F9
:1001900000000000000000000000250028002B00E7
:1001A00000000000240027002A00000000002300B7
:1001B00026002900040404040404040402020202C8
:1001C000020203030303030301020408102040801A
:1001D0000102040810200102040810204613EE0E4C
:1001E00011241FBECFEFD8E0DEBFCDBF26E0AEE7C3
:1001F000B4E001C01D92A034B207E1F714E0A0E022
:10020000B1E0E0E1F8E302C005900D92AE37B1072E
:10021000D9F710E0CFEED0E004C02197FE010E9494
:10022000E119CE3ED107C9F70E94FE0E0C94FB1BCC
:100230000C9400000895CF92DF92EF92FF920F93FB
:100240001F93CF93DF936C017A018B01C0E0D0E064
:10025000CE15DF0581F0D8016D918D01D601ED91AC
:10026000FC910190F081E02DC6010995892B11F0D8
:100270002196EECF7E01C701DF91CF911F910F91A3
:10028000FF90EF90DF90CF900895FC01538D448D47
:10029000252F30E0842F90E0821B930B541710F031
:1002A000CF96089501970895FC01918D828D98173E
:1002B00061F0828DDF01A80FB11D5D968C91928D4A
:1002C0009F5F9F73928F90E008958FEF9FEF089547
:1002D000FC01918D828D981731F0828DE80FF11D10
:1002E000858D90E008958FEF9FEF0895FC01918D2B
:1002F000228D892F90E0805C9F4F821B91098F7324
:100300009927089588EE94E00E94760121E0892BD8
:1003100009F420E0822F0895FC01848DDF01A80FED
:10032000B11DA35ABF4F2C91848D90E001968F731D
:100330009927848FA689B7892C93A089B1898C913C
:10034000837080648C93938D848D981306C002888B
:10035000F389E02D80818F7D80830895EF92FF9255
:100360000F931F93CF93DF93EC0181E0888F9B8DD8
:100370008C8D981305C0E889F989808185FD26C098
:10038000F62E0B8D10E00F5F1F4F0F731127E02E1D
:100390008C8DE8120CC00FB607FCFACFE889F989FA
:1003A000808185FFF5CFCE010E948C01F1CF8B8D2E
:1003B000FE01E80FF11DE35AFF4FF0829FB7F8945A
:1003C0000B8FEA89FB89808180620AC09FB7F8940D
:1003D000EE89FF896083E889F98980818370806470
:1003E00080839FBF81E090E0DF91CF911F910F91BB
:1003F000FF90EF900895CF93DF93EC01888D8823D1
:10040000C9F0EA89FB89808185FD05C0A889B98981
:100410008C9186FD0FC00FB607FCF5CF808185FF5C
:10042000F2CFA889B9898C9185FFEDCFCE010E94CA
:100430008C01E7CFDF91CF91089585ED8093BC00CB
:100440008091BC0084FDFCCF109206060895409177
:10045000BE04262F30E0240F311D21323105DCF49B
:10046000209106062430C9F4FC0180E090E0861754
:1004700058F43091BE042191DC01A256BB4FA30F6A
:10048000B11D2C930196F3CF8091BE04680F609349
:10049000BE0480E0089581E0089582E00895089503
:1004A00008950895E091E6048091E504E81730F49A
:1004B000F0E0E258FB4F808190E008958FEF9FEFCE
:1004C00008959091E6048091E504981750F4E92F7F
:1004D000F0E0E258FB4F208130E09F5F9093E6040C
:1004E00002C02FEF3FEFC90108958091E50490E02D
:1004F0002091E604821B91090895CF92DF92EF923A
:10050000FF920F931F93CF93DF937C01CB018A015E
:1005100020910706222389F0EB016B01C40ED51E42
:10052000CC15DD0569F06991D701ED91FC91019041
:10053000F081E02DC7010995F3CF642F0E942702B7
:10054000C801DF91CF911F910F91FF90EF90DF9045
:10055000CF900895CF93DF931F92CDB7DEB7698315
:10056000209107062223D1F020912A06203240F064
:1005700021E030E0FC013383228380E090E015C06D
:1005800080910806E82FF0E0E75FF94F99819083AA
:100590008F5F8093080680932A0605C061E0CE0134
:1005A00001960E94270281E090E00F90DF91CF91A9
:1005B000089580E090E0089508950F931F93CF93DE
:1005C000DF93EC0188819981009729F02A813B8192
:1005D0002617370788F48B016F5F7F4F0E94081B37
:1005E000009761F0998388831B830A832C813D8166
:1005F000232B11F4FC01108281E001C080E0DF9127
:10060000CF911F910F910895EF92FF920F931F9337
:10061000CF93DF936115710511F480E01CC0411583
:100620005105C1F07B01EC018C819D818A01080F8D
:10063000191FB801CE010E94DD02882371F32881C1
:1006400039818C819D81B701820F931F0E94E51B28
:100650001D830C8381E0DF91CF911F910F91FF905B
:10066000EF900895CF93DF93EC01888199810097F3
:1006700011F00E947F1A198218821D821C821B822F
:100680001A82DF91CF910895EF92FF920F931F93FB
:10069000CF93DF93EC017B018A01BA010E94DD0256
:1006A000811104C0CE010E94320307C01D830C8358
:1006B000B701888199810E94E51BCE01DF91CF911E
:1006C0001F910F91FF90EF9008950C947F1A0C9456
:1006D0007F1A0F931F93CF93DF938C01EB0188E276
:1006E000FB0111928A95E9F74BE050E06AE571E071
:1006F000CE010E94EC1B81E090E0A0E0B0E08C878E
:100700009D87AE87BF87F80185819681A781B085D7
:10071000888B998BAA8BBB8B8CE090E0A0E0B0E03B
:100720008C8B9D8BAE8BBF8B80E894E8AEE1B0E004
:100730008CA39DA3AEA3BFA380E090E0A8ECB2E49D
:10074000888F998FAA8FBB8F1C8E1D8E1E8E1F8E39
:1007500080E090E0A0E8BFE388A399A3AAA3BBA38D
:10076000DF91CF911F910F9108950F931F93CF9316
:10077000DF938C01EB0188E2FB0111928A95E9F786
:100780004BE050E06AE571E0CE010E94EC1B81E095
:1007900090E0A0E0B0E08C879D87AE87BF87F8012E
:1007A00085819681A781B085888B998BAA8BBB8B1D
:1007B0008DE090E0A0E0B0E08C8B9D8BAE8BBF8B8A
:1007C00080E894E8AEE1B0E08CA39DA3AEA3BFA304
:1007D00080E090E0A0EAB2E4888F998FAA8FBB8F67
:1007E00080E090E0A0EAB1EC8C8F9D8FAE8FBF8F40
:1007F00080E090E0A0E0B0E488A399A3AAA3BBA303
:10080000DF91CF911F910F910895CF93DF93EC016A
:100810006115710561F0FB0101900020E9F7319746
:10082000AF01461B570B0E940403811103C0CE0188
:100830000E943203CE01DF91CF910895CF93DF93D1
:10084000EC01FB0144815581608171810E940403A8
:10085000811103C0CE010E943203CE01DF91CF91FE
:100860000895CF93DF93EC016115710559F0FB01F9
:1008700001900020E9F73197AF01461B570B0E940A
:10088000440302C00E943203CE01DF91CF9108954C
:10089000FC01808191810C947F1ADF92EF92FF928C
:1008A0000F931F93CF93DF93CDB7DEB728970FB683
:1008B000F894DEBF0FBECDBFDD24D39488EE94E064
:1008C0000E947601892B09F4C8C088EE94E00E944A
:1008D0005401182F89831A8241E050E0BE016F5FF6
:1008E0007F4F88EB95E00E9404031A3039F701E04E
:1008F00010E0E090BC05F090BD05C701019780179E
:10090000910708F44CC00E151F0558F48091B805E6
:100910009091B905009729F0FC01E00FF11FF080DC
:1009200001C0F12C1A8219821C821B821E821D8238
:100930006091B2057091B3056115710541F0409168
:10094000B6055091B705CE0101960E944403FF827F
:10095000188641E050E0BE01695F7F4FCE010196ED
:100960000E940403811104C0CE0101960E9432034B
:1009700069817A816115710539F04D815E8182EB63
:1009800095E00E94440304C082EB95E00E9432038C
:10099000CE0101960E9448040F5F1F4FAACF81E647
:1009A00091E00E946709811143C0EF2841F0E09176
:1009B000B805F091B905309711F0808101C080E051
:1009C0001A8219821C821B821E821D828F831886C6
:1009D000BE01695F7F4FCE0101960E943104809174
:1009E000B8059091B905009739F069817A81611550
:1009F000710509F50E947F1A89819A819093B90542
:100A00008093B8058B819C819093BB058093BA0538
:100A10008D819E819093BD058093BC051A821982B9
:100A20001C821B821E821D82CE0101960E944804F8
:100A3000D092E70443CF4091BA055091BB052D8178
:100A40003E8142175307B0F20E94E51B8D819E81C3
:100A50009093BD058093BC05E5CF28960FB6F8941A
:100A6000DEBF0FBECDBFDF91CF911F910F91FF90E1
:100A7000EF90DF9008950E94820181110C944D0443
:100A80000895FC0111821082138212821582148251
:100A90006115710551F0FB0101900020E9F73197D4
:100AA000AF01461B570B0C94440308951F920F92FD
:100AB0000FB60F9211242F933F934F935F936F9331
:100AC0007F938F939F93AF93BF93EF93FF9388EEA2
:100AD00094E00E948C01FF91EF91BF91AF919F91A3
:100AE0008F917F916F915F914F913F912F910F90D7
:100AF0000FBE0F901F9018951F920F920FB60F9276
:100B000011242F938F939F93EF93FF93E091F80419
:100B1000F091F9048081E091FE04F091FF0482FDE0
:100B200012C09081809101058F5F8F732091020523
:100B3000821751F0E0910105F0E0E851FB4F958FED
:100B40008093010501C08081FF91EF919F918F916A
:100B50002F910F900FBE0F901F9018951F920F921C
:100B60000FB60F9211242F933F934F935F936F9380
:100B70007F938F939F93AF93BF93EF93FF93809156
:100B8000B900887F803609F49CC068F5883209F482
:100B90005BC090F4803109F454C038F4882309F420
:100BA000F6C0883009F44DC0F6C0883109F44CC055
:100BB000803209F45DC0EFC0803409F468C048F4A5
:100BC000803309F455C0883309F0E5C080930406EA
:100BD000D8C0803509F44FC0883509F45DC0883429
:100BE00009F0D9C0D6C0883909F4C7C0A8F488373D
:100BF00009F467C038F4883609F463C0803709F413
:100C000060C0C9C0883809F4B8C0803909F45FC031
:100C1000803809F0C0C05BC0803B09F486C038F45E
:100C2000803A09F466C0883A09F47FC0B4C0803CB9
:100C300009F4A7C0883C09F4A4C0883B09F48AC021
:100C4000AAC08091E10510C0909103068091020630
:100C5000981770F5E091030681E08E0F80930306EC
:100C6000F0E0EE51FA4F80818093BB0085EC86C0A6
:100C7000809304068EC0E091030681E08E0F80937E
:100C800003068091BB00F0E0EE51FA4F8083909113
:100C90000306809102066EC0E091030681E08E0F8C
:100CA000809303068091BB00F0E0EE51FA4F808301
:100CB0008091050681116DC081E08093E00584EA92
:100CC00061C083E0809306061092E004CFCF80914C
:100CD000E004803208F051C0E091E00481E08E0F22
:100CE0008093E0048091BB00F0E0E054FB4F8083F0
:100CF000BDCF85EC8093BC00109206068091E00485
:100D0000803230F4E091E004F0E0E054FB4F1082D8
:100D10006091E00470E0E091E104F091E20480EC85
:100D200094E009951092E00436C084E080930606B2
:100D30001092BF041092BE04E091E304F091E40429
:100D400009958091BE04811105C081E08093BE04A5
:100D500010929E04E091BF0481E08E0F8093BF0447
:100D6000F0E0E256FB4F80818093BB009091BF047E
:100D70008091BE04981708F479CF85E88093BC0071
:100D80000AC085EC8093BC001092060604C0109245
:100D900004060E941D02FF91EF91BF91AF919F91B8
:100DA0008F917F916F915F914F913F912F910F9014
:100DB0000FBE0F901F901895CF92DF92EF92FF9287
:100DC0000F931F93CF93DF9300D000D000D0CDB707
:100DD000DEB78C01E62EDC0154968C91FF24F3944F
:100DE000F0920706809329061092080610922A06B0
:100DF00060E085E895E00E94AA020E948C0D6AE0FE
:100E000070E080E090E00E94E80DF8018489F092A3
:100E10000706809329061092080610922A0663E0BE
:100E200085E895E00E94AA026E2D85E895E00E9473
:100E3000AA0262E085E895E00E94AA020E948C0D59
:100E400062E070E080E090E00E94E80DD8015496E6
:100E50008C91909106069111FCCF91E0909306063B
:100E6000909305062FEF209304061092030625E0C9
:100E7000209302069093E1059091E105880F892B5C
:100E80008093E1058091E005813061F41092E005E6
:100E90008091E1058093BB008091BC0083FDF8CF79
:100EA00085EC01C085EE8093BC0080910606813000
:100EB000E1F380910306863018F49091030601C097
:100EC00096E0A2EEB5E0EEE7F4E080E0891721F0CD
:100ED0002D9121938F5FFACF1092E6048093E50461
:100EE000863019F08FEF9FEF3EC08E010F5F1F4FCE
:100EF0006E01B7E0CB0ED11C780185E895E00E9429
:100F00006102F70181937F01CE16DF06B1F7898177
:100F1000833041F78A81823029F76D817E81FE011D
:100F200035968FEF9FEFD8012D918D01822728E014
:100F300030E0AC015695479580FF06C0CA01B1E08C
:100F40008B27B0EA9B2701C0CA012150310989F7DC
:100F5000E017F10741F76817790721F68B819C812B
:100F600098278927982726960FB6F894DEBF0FBEDC
:100F7000CDBFDF91CF911F910F91FF90EF90DF9048
:100F8000CF9008950F931F93CF93DF938C01EB01C4
:100F900084E2FB0111928A95E9F784E290E0A0E0F7
:100FA000B0E088839983AA83BB83F8018581968109
:100FB000A781B0858C839D83AE83BF838CE090E056
:100FC000A0E0B0E088879987AA87BB870E94220E9D
:100FD000688B798B8A8B9B8B60E0F801838194818D
:100FE0000E94DC068F3FFFEF9F0761F0BC0180E0AD
:100FF00090E00E94291720E030E040E251E40E9496
:10100000EC1804C060E070E080EC9FE76C8B7D8B97
:101010008E8B9F8B81E0DF91CF911F910F9108956F
:1010200062E00E94DC068F3F2FEF9207C9F097FF26
:101030000AC0BC017F77719561957109072E000C7C
:10104000880B990B04C0BC01990F880B990B0E9467
:101050002B1720E030E040E251E40E94EC180895A4
:1010600060E070E080EC9FE708950F931F93CF93AB
:10107000DF938C01EB0184E2FB0111928A95E9F781
:1010800084E290E0A0E0B0E088839983AA83BB83E8
:10109000F80185819681A781B0858C839D83AE837D
:1010A000BF838DE090E0A0E0B0E088879987AA87B1
:1010B000BB870E94220E688B798B8A8B9B8BF801F1
:1010C000838194810E9410086C8B7D8B8E8B9F8B0B
:1010D00081E0DF91CF911F910F910895DC0180E0B5
:1010E000615098F02D91982F9227E92FEF70F0E042
:1010F000EE59FE4F249192959F70E92FF0E0EE5843
:10110000FE4FE491822F8E27EBCF0895FC01908152
:101110000180F281E02DF8948181892B81832281E5
:10112000892F809528232283A7E0B0E01197F1F75B
:10113000218182238183A3E2B0E01197F1F78081BE
:101140007894EFECF0E03197F1F7982381E009F41F
:1011500080E00895FC0190810180F281E02D892FCB
:10116000809560FF12C0F89422818223828381815E
:10117000892B8183A3E2B0E01197F1F78281982B4C
:101180009283789487ED90E011C0F89422818223B5
:1011900082838181892B8183AFEFB0E01197F1F7D2
:1011A0008281982B928378948FE090E00197F1F7F9
:1011B0000895DF92EF92FF920F931F93CF93DF93E7
:1011C000EC01D62EE42E08E010E0FF24F39461E059
:1011D0008D2D8F2109F460E0CE010E94AA08FF0C3A
:1011E00001501109A1F7E11010C0F894E981FA81CA
:1011F00091818881809589238183E981FA81928117
:1012000088818095892382837894DF91CF911F9183
:101210000F91FF90EF90DF900895EF92FF920F9360
:101220001F93CF93DF938C017B0140E065E50E9423
:10123000D908E70188E0E80EF11C699140E0C80197
:101240000E94D908CE15DF05C1F7DF91CF911F911C
:101250000F91FF90EF900895DC012C911196ED9184
:10126000FC911297F8948181922F90958923818324
:1012700078948DE743E050E0815021F1DA01119735
:10128000F1F730813223C1F3F8948281892382837C
:101290008181822B81837894ABE7B7E01197F1F7D6
:1012A000F89481819823918383E191E00197F1F78C
:1012B0008081282381E009F080E07894E3E6F6E07D
:1012C0003197F1F70895089508950E94CE1BFC010F
:1012D0008091BC059091BD05892B21F421E03097C8
:1012E00049F413C08091B8059091B905309731F455
:1012F00021E0FC018081882341F006C0BF010E94EB
:10130000DC1B21E0892B09F020E0822F08958F92C9
:101310009F92AF92BF92CF92DF92EF92FF920F9384
:101320001F93CF93DF938C01EB018091C4059091C3
:10133000C5050E942C09882309F43DC0B80180919D
:10134000C4059091C5050E940D0940E06EEB8091A7
:10135000C4059091C5050E94D9088E015E0189E0FF
:10136000A80EB11C8090C4059090C50588E0C82ED9
:10137000D12CF12CEE24E394C4010E948608811143
:10138000FE28EE0CE1E0CE1AD108B1F7F801F19297
:101390008F01EA15FB0531F78091C4059091C505D1
:1013A0000E942C09813039F468E0CE010E946E0859
:1013B00091E02885281390E0892FDF91CF911F912C
:1013C0000F91FF90EF90DF90CF90BF90AF909F90E4
:1013D0008F900895CF93DF93CDB7DEB729970FB6DF
:1013E000F894DEBF0FBECDBFFC0120812031D1F0CB
:1013F000BE016F5F7F4F0E948709882389F08D812E
:101400008F3361F020F48F3159F489E00CC08F35AF
:1014100019F08F3739F004C08BE005C08AE003C0B3
:1014200080E001C08CE029960FB6F894DEBF0FBEB5
:10143000CDBFDF91CF910895BF92CF92DF92EF920F
:10144000FF920F931F93CF93DF93EC016B018D8578
:10145000811105C0CE010E942C09811105C01B8697
:101460001D861C8680E060C040E060EFCE010E94D7
:10147000D90801E0E12CB12C11E0CE010E948608D0
:10148000F82ECE010E94860891E0F91203C0813047
:10149000B1F434C02E2D30E0F8121BC08B85181724
:1014A00038F4FE01E20FF31F8381802341F402C070
:1014B000811729F0F12C193058F41C8709C0FE015E
:1014C000EE0DF11D8381802B8383FF24F39409C0EB
:1014D000B12EFE01E20FF31F9381802F80958923A7
:1014E00083836F2DCE010E94AA081F5F000F11F4A5
:1014F000E39401E087E08E1508F0BFCF113408F4C3
:10150000AECFBB86B11002C081E08D878B8188236E
:1015100009F4A5CFDE011396F6012B968D918193E8
:10152000CA17DB07D9F781E0DF91CF911F910F91A7
:10153000FF90EF90DF90CF90BF900895FF920F93B0
:101540001F93CF93DF938C01F62EE091C405F091A9
:10155000C505138615861486DF011B9633961E92E9
:10156000EA17FB07E1F7C0E0B8018091C40590914C
:10157000C5050E941C0AD82F882369F0FC1208C0F8
:1015800067E0C8010E946E08F8019781891721F071
:10159000CF5FFC1648F7D0E08D2FDF91CF911F91E0
:1015A0000F91FF900895009769F0FC0101900020D1
:1015B000E9F73197AF01481B590BBC0188EE94E065
:1015C0000C941B0180E090E00895CF93DF930E947C
:1015D000D30AEC0180E791E00E94D30A8C0F9D1F93
:1015E000DF91CF9108958F929F92AF92BF920F9308
:1015F0001F93CF93DF93CDB7DEB7A1970FB6F894C3
:10160000DEBF0FBECDBF19A2423008F44AE08E0102
:101610000F5D1F4F842E912CA12CB12CA50194019C
:101620000E94AB19E62FB901CA0101501109EA3035
:1016300014F4E05D01C0E95CD801EC93232B242B6A
:10164000252B61F7C8010E94D30AA1960FB6F89422
:10165000DEBF0FBECDBFDF91CF911F910F91BF9025
:10166000AF909F908F9008950C94D30A90E0FC0166
:10167000EE57FE4F2491FC01E853FE4F3491FC01DC
:10168000EC54FE4FE491EE23B1F1222339F12330E3
:1016900091F038F42130A9F0223001F584B58F7D26
:1016A00012C0273091F02830A1F02430B9F4809195
:1016B00080008F7D03C0809180008F7780938000B1
:1016C0000DC084B58F7784BD09C08091B0008F773D
:1016D00003C08091B0008F7D8093B000F0E0EE0FEA
:1016E000FF1FEA56FE4FA591B4918FB7F894EC9185
:1016F000E32BEC938FBF0895FC01448155816081F9
:10170000718188EE94E00C941B013FB7F8948091AE
:10171000380690913906A0913A06B0913B0626B55D
:10172000A89B05C02F3F19F00196A11DB11D3FBF19
:10173000BA2FA92F982F8827820F911DA11DB11DA7
:10174000BC01CD0142E0660F771F881F991F4A95A3
:10175000D1F708958F929F92AF92BF92CF92DF926E
:10176000EF92FF920F931F93CF93DF936B017C0156
:10177000142F9B01AC010E949219882319F088E371
:1017800094E027C046015701E894B7F82FEF3FEFE8
:101790004FE75FE7C501B4010E94921981110DC0A6
:1017A0002FEF3FEF4FE75FE7C501B4010E94241719
:1017B00018161CF48CE394E00CC02FEF3FEF4FE7BA
:1017C0005FE4C701B6010E948D19181684F480E405
:1017D00094E0DF91CF911F910F91FF90EF90DF90F8
:1017E000CF90BF90AF909F908F900C94D30A2FEF23
:1017F0003FEF4FE75FECC701B6010E94241787FD5A
:10180000E6CF20E030E0A901C701B6010E9424170D
:1018100087FF0BC06DE288EE94E00E94AE01EC0100
:10182000F7FAF094F7F8F09402C0C0E0D0E000E0DE
:1018300060E070E080E09FE3101741F020E030E0CE
:1018400040E251E40E94EC180F5FF6CFA701960129
:101850000E9480186B017C010E945E194B015C01A3
:101860004AE00E94F30AC80FD91F1123B9F1C5013C
:10187000B4010E9429179B01AC01C701B6010E9467
:101880007F186B017C016EE288EE94E00E94AE014D
:10189000C80FD91F20E030E040E251E4C701B60193
:1018A0000E948A174B015C010E945E196B01E12CBA
:1018B000F12C4AE0C701B6010E94F30AC80FD91FF4
:1018C000C701B6010E9429179B01AC01C501B401F3
:1018D0000E947F186B017C011150E1F6CE01DF916F
:1018E000CF911F910F91FF90EF90DF90CF90BF901D
:1018F000AF909F908F900895CF92DF92EF92FF92DA
:101900000F931F93CF93DF93CDB7DEB729970FB611
:10191000F894DEBF0FBECDBF84E494E00E94340B88
:101920000BE216E0F12C6801F8018081803120F48F
:101930008FE591E00E94340B0F5F1F4FF60160812D
:1019400070E080E090E040E10E94F30AF394F8E058
:10195000FF1629F086EB92E00E94340BE4CF87E576
:1019600094E00E94340BBE016F5F7F4F8BE296E0E4
:101970000E948709882369F12A8130E0C901982FE4
:101980008827990F990F990F698128E0629FB0010C
:1019900011249C01262B372B80912B068031E1F4FA
:1019A000688570E08F81AB01481B5109CA0196958B
:1019B000982F8827979587950E94971960517109EC
:1019C000207F53E0220F331F5A95E1F7620F731FF8
:1019D00004C060E874EE01C0B901613854EE7507C7
:1019E0007CF0072E000C880B990B0E942B1720E02F
:1019F00030E040E05CE30E948A176B017C0106C086
:101A0000C12CD12C8EEFE82E82ECF82E8AE594E0E2
:101A10000E94340B42E0C701B6010E94AA0B8CE67B
:101A200094E00E94340B26E636E646EE5FE3C701FB
:101A3000B6010E948A1720E030E040E052E40E94A4
:101A4000801842E00E94AA0B29960FB6F894DEBFD8
:101A50000FBECDBFDF91CF911F910F91FF90EF90FF
:101A6000DF90CF9008950F931F93CF93DF93CDB75F
:101A7000DEB762970FB6F894DEBF0FBECDBF8C0104
:101A8000CB01F80111821082138212821582148216
:101A90004AE0BE016F5F7F4F0E948614BE016F5FF8
:101AA0007F4FC8010E94310462960FB6F894DEBFE2
:101AB0000FBECDBFDF91CF911F910F9108950F936E
:101AC0001F93CF93DF93CDB7DEB729970FB6F89466
:101AD000DEBF0FBECDBF8C01862FF80111821082B0
:101AE00013821282158214824AE0BE016F5F7F4F1B
:101AF00090E00E94C814BE016F5F7F4FC8010E9432
:101B0000310429960FB6F894DEBF0FBECDBFDF912A
:101B1000CF911F910F91089530912A06313208F02C
:101B20004BC0809106068111FCCF9091290622E0DE
:101B30002093060621E0209305062FEF209304064C
:101B40001092030630930206E9E0F6E0A2EEB5E05B
:101B500020E0321721F041914D932F5FFACF109280
:101B6000E1052091E105990F922B9093E105909169
:101B7000E005913061F41092E0059091E1059093B9
:101B8000BB009091BC0093FDF8CF95EC01C095EEA1
:101B90009093BC00909106069230E1F39091040678
:101BA0009F3F79F080910406803241F080910406D5
:101BB000803331F084E005C081E003C082E001C0E1
:101BC00083E01092080610922A06109207060895E4
:101BD0008F929F92AF92BF92CF92DF92EF92FF923D
:101BE0006B017C010E94850B4B015C01C114D10487
:101BF000E104F104F1F00E94850BDC01CB018819AE
:101C00009909AA09BB09883E9340A105B10570F363
:101C100021E0C21AD108E108F10888EE880E83E0BD
:101C2000981EA11CB11CC114D104E104F10419F7E0
:101C3000DDCFFF90EF90DF90CF90BF90AF909F905F
:101C40008F9008952FB7F8946091340670913506FF
:101C500080913606909137062FBF08958F929F92FC
:101C6000AF92BF92CF92DF92EF92FF92CF93DF932A
:101C70008091C4059091C5050E942C0940E06CEC50
:101C80008091C4059091C5050E94D9084091BE0578
:101C900064E48091C4059091C5050E94D9088091A3
:101CA000C005882309F445C0E091BF05E950E33041
:101CB00040F4F0E0EE0FFF1FEC5AFE4FC081D181DF
:101CC00002C0CEEED2E08091C105882311F180914F
:101CD000BE0581111EC00E94220E4B015C016E01E7
:101CE000DD0FEE08FF088091C4059091C5050E94A4
:101CF00086088130F1F00E94220EDC01CB018C19A4
:101D00009D09AE09BF0988159905AA05BB0558F3B9
:101D100010C0BE01DD0F880B990BDF91CF91FF90B2
:101D2000EF90DF90CF90BF90AF909F908F900C94EA
:101D3000E80DDF91CF91FF90EF90DF90CF90BF90B3
:101D4000AF909F908F9008951F920F920FB60F92B1
:101D500011242F933F938F939F93AF93BF938091C1
:101D6000340690913506A0913606B0913706309131
:101D7000330623E0230F2D3720F40196A11DB11D5A
:101D800005C026E8230F0296A11DB11D209333063E
:101D90008093340690933506A0933606B0933706A9
:101DA0008091380690913906A0913A06B0913B0691
:101DB0000196A11DB11D8093380690933906A0931A
:101DC0003A06B0933B06BF91AF919F918F913F919F
:101DD0002F910F900FBE0F901F90189586EA95E0F7
:101DE0000E9448048CEA95E00E94480482EB95E04A
:101DF0000E94480488EB95E00C944804CF93DF934D
:101E0000CDB7DEB7AF970FB6F894DEBF0FBECDBF2C
:101E1000789484B5826084BD84B5816084BD85B5C5
:101E2000826085BD85B5816085BD80916E008160D1
:101E300080936E0010928100809181008260809377
:101E40008100809181008160809381008091800079
:101E50008160809380008091B10084608093B100A4
:101E60008091B00081608093B00080917A0084609E
:101E700080937A0080917A00826080937A008091CA
:101E80007A00816080937A0080917A0080688093E4
:101E90007A001092C100E091F804F091F90482E018
:101EA0008083E091F404F091F5041082E091F6044F
:101EB000F091F70480E1808310920005E091FC042A
:101EC000F091FD0486E08083E091FA04F091FB0438
:101ED000808180618083E091FA04F091FB0480812D
:101EE00088608083E091FA04F091FB04808180682F
:101EF0008083E091FA04F091FB0480818F7D8083E0
:101F00000E94220E1BA21AA21DA21CA21FA21EA288
:101F10002AE0AE014F5F5F4F0E94A614BE016F5FC3
:101F20007F4FCE0182960E94310466E671E0CE01B9
:101F300001960E944105BE016E5D7F4FCE01019664
:101F40000E941E040E947C0B80E791E00E94D30A4D
:101F5000CE0101960E944804CE0182960E94480458
:101F600063E771E0CE0101960E9441056CEA75E0DD
:101F7000CE0101960E941E0466E374E00E940504EF
:101F800066EA75E00E941E046FE771E00E94050496
:101F90000E947C0BCE0101960E9448048CE5809340
:101FA000A5051092E6041092E5041092080610921E
:101FB0002A061092060681E0809305061092E0053D
:101FC00082E10E94360B83E10E94360B8091B900BA
:101FD0008E7F8093B9008091B9008D7F8093B90086
:101FE00088E48093B80085E48093BC008FE492E09D
:101FF0009093E4048093E30480E592E09093E204FC
:102000008093E104E091C405F091C505138615861F
:102010001486DF011B9633961E92EA17FB07E1F741
:102020001092C2051092C30511E0BE016F5F7F4F91
:102030008091C4059091C5050E941C0A882309F46B
:102040005CC067E0CE0101960E946E0898858913F6
:10205000ECCF8091BE05811127C08091C40590917D
:10206000C5050E942C09BE016F5F7F4F8091C4059A
:102070009091C5050E940D0940E064EB8091C40574
:102080009091C5050E94D9088091C4059091C5051D
:102090000E948608082F8091C4059091C5050E9472
:1020A0002C09002309F4B4C20091BF05CE010196AA
:1020B0000E94EA09801718F48091BF0504C0CE0180
:1020C00001960E94EA098093BF058091C2058F5F47
:1020D0008093C2058981883209F49DC238F4803129
:1020E00009F499C2823209F0A0CF95C28B3309F46A
:1020F00092C2823409F099CF8EC281E891E00E94A9
:10210000340B6091C20570E080E090E04AE00E94EC
:10211000F30A82E991E00E94E50A00E010E09FE7FF
:10212000F92E2CE0922E8091C20590E00817190735
:102130000CF0B1C0602F8BE296E00E949E0A8111E4
:1021400004C085E991E00E94E50A8BE296E00E94D6
:10215000EA098C3009F49CC0BE016F5F7F4F8BE2AF
:1021600096E00E948709882309F492C080912B068B
:10217000803109F48DC0FD828091C4059091C50520
:102180000E942C096BE276E08091C4059091C50510
:102190000E940D0940E06EE48091C4059091C50550
:1021A0000E94D90840E06B818091C4059091C505DB
:1021B0000E94D90840E06C818091C4059091C505CA
:1021C0000E94D90880912B06803141F040E06D815A
:1021D0008091C4059091C5050E94D9088091C405DD
:1021E0009091C5050E942C096BE276E08091C405B0
:1021F0009091C5050E940D094091BE0568E480914B
:10220000C4059091C5050E94D90864E170E080E0A2
:1022100090E00E94E80D8091BE05882331F06AE0CD
:1022200070E080E090E00E94E80D8091C4059091FC
:10223000C5050E942C098091BF058C3008F48CE004
:102240008093BF058C3021F19092BF05A12CB12C59
:102250008091C20590E0A816B906D4F46A2DCE018B
:1022600082960E949E0A8090BF05CE0182960E94AF
:10227000EA09881518F48091BF0504C0CE01829642
:102280000E94EA098093BF052FEFA21AB20AE0CF9D
:102290000F5F1F4F48CF80E4F82E0E944D048091BD
:1022A000E704882309F49DC182ED91E00E9467094B
:1022B000882309F4B3C08091B2059091B3050097CB
:1022C00039F00E945F144B015C0197FD7CC103C093
:1022D000812C912C540184016091C205CE0101969C
:1022E0000E945F0D64ED71E0CE0182960E9441056F
:1022F000BE016F5F7F4FCE0182960E941E0463EE87
:1023000071E00E9405040E947C0BCE0182960E941F
:102310004804CE0101960E94480497FE03C000E0E5
:1023200010E070C0682D8BE296E00E949E0A811139
:1023300004C080EF91E00E94E50AB801CE01019649
:102340000E94330D6CE172E0CE0182960E9441053D
:10235000BE016F5F7F4FCE0182960E941E046FE226
:1023600072E00E9405040E947C0BCE0182960E94BE
:102370004804CE0101960E9448040E942E0E0E943D
:102380007C0C83E991E00E94E50A43C0602F8BE258
:1023900096E00E949E0A811104C081E392E00E94AF
:1023A000E50A0115110521F08FE292E00E94340B3D
:1023B000B801CE0101960E94330D6CE172E0CE01AE
:1023C00082960E944105BE016F5F7F4FCE018296CB
:1023D0000E941E046FE272E00E9405040E947C0BC2
:1023E000CE0182960E944804CE0101960E944804C4
:1023F0000E942E0E0E947C0C83E991E00E94E50A67
:102400000F5F1F4F8091C20590E0081719070CF469
:10241000BDCF8FE194E00E94E50AD5C08DE592E042
:102420000E946709882309F46AC060E081E995E0A9
:102430000E94DC068F3F2FEF920761F0BC0180E025
:1024400090E00E94291720E030E040E251E40E9431
:10245000EC1804C060E070E080EC9FE71BA21AA2B9
:102460001DA21CA21FA21EA28E010F5F1F4F22E001
:1024700044E00E943F14BC01CE0182960E943104C8
:1024800081E995E00E9410081BA61AA61DA61CA6AD
:102490001FA61EA622E044E00E943F14BC01CE010C
:1024A0008A960E9431046FE572E0C8010E944105DE
:1024B000BE01665D7F4FC8010E941E046FEA72E094
:1024C0000E940504BE016E5D7F4F0E941E0468EBF2
:1024D00072E00E9405040E947C0BC8010E9448041F
:1024E000CE018A960E944804CE0182960E9448043A
:1024F00068EE73E080E090E00E94E80D64C08BEB32
:1025000092E00E946709882369F1F0927C00809133
:102510007A00806480937A0080917A0086FDFCCFF7
:10252000609178008091790070E0782BCE0101965F
:102530000E94330D6DEB72E0CE0182960E94410540
:10254000BE016F5F7F4FCE0182960E941E0468EB32
:1025500072E00E9405040E947C0BCE0182960E94CC
:1025600048048FC08CE093E00E9467098823F9F04B
:102570006EE073E0CE0101960E9441056CEA75E0C1
:10258000CE0101960E941E0466E374E00E940504D9
:1025900066EA75E00E941E046CE173E00E94050487
:1025A0000E947C0BCE0101960E9448040CC08FE66D
:1025B00093E00E946709811134C081E793E00E9493
:1025C000670981112EC081E791E00E946709882385
:1025D00041F088EE94E00E94FB0183E793E00E94C3
:1025E000E50A62E771E088EB95E00E94310462E75A
:1025F00071E082EB95E00E9431041092E70468EEEE
:1026000073E080E090E00E94E80D0E943B0545CE1B
:102610001093BE0549CD8091C3058F5F8093C3059C
:1026200004CD6091C205CE0101960E945F0D6091BC
:10263000C205CE0182960E945F0D63E873E0CE0171
:102640008A960E944105BE016E5D7F4FCE018A963B
:102650000E941E046EEA73E00E940504BE016F5FD3
:102660007F4F0E941E0463EC73E00E9405040E94E9
:102670007C0BCE018A960E944804CE0182960E946D
:102680004804CE0101960E9448049DCFCF93DF936A
:102690001092EB041092EA0488EE93E0A0E0B0E020
:1026A0008093EC049093ED04A093EE04B093EF04B8
:1026B0002AE031E03093E9042093E80425EC30E08F
:1026C0003093F5042093F40424EC30E03093F704C5
:1026D0002093F60420EC30E03093F9042093F804C2
:1026E00021EC30E03093FB042093FA0422EC30E03C
:1026F0003093FD042093FC0426EC30E03093FF047B
:102700002093FE0410920105109202051092030519
:102710001092040510928805109287058093890510
:1027200090938A05A0938B05B0938C058CE191E082
:102730009093860580938505E5EDF1E02491E1EC29
:10274000F1E084918823C1F090E0880F991FFC018B
:10275000E056FE4FC591D491FC01EA56FE4FA5917B
:10276000B4919FB7F8948881E22FE0958E238883F7
:102770008C91E823EC939FBFE5EDF1E0E491E093C9
:10278000D205E1ECF1E0E491F0E0EE0FFF1FE65539
:10279000FE4F859194919093D4058093D305109228
:1027A000DD051092DF051092DE05EDEDF5E085ED1B
:1027B00095E012928E179F07E1F782ED95E09093D6
:1027C000C5058093C4051092C2051092C3051092EE
:1027D000BE0589E08093BF0581E08093C0058093AA
:1027E000C1051092D1051092D00562E771E088EB27
:1027F00095E00E94410562E771E082EB95E00E945E
:10280000410562E274E08CEA95E00E94410567E2CE
:1028100074E086EA95E00E94410521E935E08CE309
:1028200091E09093920580939105309395052093C4
:1028300094058FEF9FEFDC018093960590939705A9
:10284000A0939805B09399054EE251E050939B05F3
:1028500040939A0530939E0520939D0580939F0594
:102860009093A005A093A105B093A20585E895E0FB
:102870009093A4058093A305DF91CF910895EF92E3
:102880000F931F93CF93DF93E80147FD02C034E01D
:1028900001C034E1042E000C550B57FF03C05195C5
:1028A00041955109E32E022F242FAE010E94E2141C
:1028B000CE01DF91CF911F910F91EF9008951F935B
:1028C000FC0199278827BC01E89411911032E9F3A3
:1028D000193010F01E30C8F31B3251F01D3249F48C
:1028E000689406C00E949114610F711D811D911D95
:1028F000119110531A30B0F33EF490958095709575
:1029000061957F4F8F4F9F4F1F910895BB274A308E
:1029100031F4992322F4BDE2909581959F4F0C9458
:10292000C914592F482F372F262F660F771F881F5E
:10293000991F660F771F881F991F620F731F841FCF
:10294000951F660F771F881F991F0895BB27FA01EF
:10295000A62F6217710581059105330B30FB66F0D8
:10296000AA27660F771F881F991FAA1FA21710F0AA
:10297000A21B63953850A9F7A05DAA3308F0A95DA2
:10298000A19336F7B111B1931082CA010C941417B8
:10299000BB27FB015527AA27880F991FAA1FA41739
:1029A00010F0A41B83955051B9F7A05DAA3308F02D
:1029B000A95DA193009779F7B111B1931192CB0161
:1029C0000C941417A9E0B0E0E8EEF4E10C944E1872
:1029D0006A01122FB02E2BE3201720F0FF24F3946E
:1029E000F00E02C02CE3F22E0F2D27E0AE014F5F58
:1029F0005F4F0E943C16BC014981842F8970813051
:102A000031F0E1FC06C0E0FE06C090E205C09DE2A8
:102A100003C09BE201C090E05E2D507143FF3CC0BB
:102A2000911102C083E001C084E0811718F4212FC6
:102A3000281B01C020E051110BC0F601822F30E2AB
:102A4000882319F031938150FBCFC20ED11C20E0B6
:102A5000992329F0D6019C93F60131966F01C601A6
:102A60000396E2FE0AC03EE4D6013C9341E411968F
:102A70004C93119712963C9306C03EE6F6013083C4
:102A800041E641833283FC01322F40E2332309F4D3
:102A900042C041933150FACF42FF44C0911102C06D
:102AA00083E001C084E0811718F4212F281B01C0A6
:102AB00020E051110BC0F601822F30E2882319F07B
:102AC00031938150FBCFC20ED11C20E0992329F015
:102AD000D6019C93F60131966F01C6010396E2FE82
:102AE0000BC039E4D6013C933EE411963C93119718
:102AF00036E412963C9307C039E6F60130833EE691
:102B0000318336E63283FC01322F40E2332319F061
:102B100041933150FBCFFC01E20FF11D10828EEF8B
:102B20009FEFA6C021E030E0911102C020E030E02C
:102B3000161617061CF4FB01319602C0E1E0F0E026
:102B40002E0F3F1FBB2021F0EB2DF0E0319602C08D
:102B5000E0E0F0E02E0F3F1FE12FF0E02E173F07DF
:102B60001CF4121B212F01C020E08E2D887159F416
:102B7000F601822F30E2882319F031938150FBCF88
:102B8000C20ED11C20E0992329F0D6019C93F601B6
:102B900031966F0151110BC0F601822F90E388230B
:102BA00019F091938150FBCFC20ED11C20E00F2D64
:102BB000060F9A81342F307144FF03C0913309F41A
:102BC0000150101624F4093018F008E001C001E0AB
:102BD000AB0177FF02C040E050E0FB01E41BF50BC6
:102BE000A1E0B0E0AC0FBD1FEA0FFB1F8EE2A82EE4
:102BF0004B01801A91080B2D10E0119501951109D8
:102C00004F3FBFEF5B0721F4D601AC9211966D01E7
:102C1000641775072CF08416950614F4818101C0A1
:102C200080E3415051093196D60111967D0140173C
:102C3000510724F0D6018C936701E2CF6417750722
:102C400039F4963320F4953319F4311101C081E33E
:102C5000F6018083F701822F90E2882319F0919387
:102C60008150FBCFF701E20FF11D108280E090E070
:102C70002996ECE00C946A18283008F027E03327F6
:102C8000DA01990F311D87FD91600096610571058C
:102C900039F432602E5F3D9330E32A95E1F70895D1
:102CA0009F3F30F080387105610509F03C5F3C5F63
:102CB0003D93913008F08068911DDF93CF931F936F
:102CC0000F93FF92EF92192F987F9695E92F969583
:102CD0009695E90FFF27EE53FF4F99273327EE24F0
:102CE000FF24A701E70105900894079428F4360F04
:102CF000E71EF81E491F511D660F771F881F991F79
:102D00000694A1F70590079428F4E70EF81E491FD2
:102D1000561FC11D770F881F991F661F0694A1F7C4
:102D20000590079428F4F80E491F561FC71FD11DA0
:102D3000880F991F661F771F0694A1F705900794C7
:102D400020F4490F561FC71FD81F990F661F771F02
:102D5000881F0694A9F784911095177041F0D695B5
:102D6000C79557954795F794E7941A95C1F7E8E604
:102D7000F0E06894159015913591659195910590C5
:102D80007FE27395E118F10A430B560BC90BD0098A
:102D9000C0F7E10CF11E431F561FC91FD01D7EF462
:102DA000703311F48A95E6CFE894015030F0080FA3
:102DB0000AF40027021708F4202F2395022F7A33F4
:102DC00028F079E37D932A95E9F710C07D932A9541
:102DD00089F6069497956795379517951794E11896
:102DE000F10A430B560BC90BD00998F023957E913D
:102DF00073957A3308F070E37C932013B8F77E91D3
:102E000070617D9330F0839571E37D9370E32A9533
:102E1000E1F71124EF90FF900F911F91CF91DF9177
:102E2000992787FD90950895DC01FC01672F71912A
:102E30007723E1F7329704C07C916D9370836291A0
:102E4000AE17BF07C8F308950E94661708F481E023
:102E50000895E89409C097FB3EF49095809570958D
:102E600061957F4F8F4F9F4F9923A9F0F92F96E9D6
:102E7000BB279395F695879577956795B795F1114B
:102E8000F8CFFAF4BB0F11F460FF1BC06F5F7F4FE8
:102E90008F4F9F4F16C0882311F096E911C07723FA
:102EA00021F09EE8872F762F05C0662371F096E803
:102EB000862F70E060E02AF09A95660F771F881FD2
:102EC000DAF7880F9695879597F90895990F000876
:102ED000550FAA0BE0E8FEEF16161706E807F907EC
:102EE000C0F012161306E407F50798F0621B730B87
:102EF000840B950B39F40A2661F0232B242B252B08
:102F000021F408950A2609F4A140A6958FEF811DAA
:102F1000811D08950E949D170C940E180E940018A0
:102F200038F00E94071820F0952311F00C94F71741
:102F30000C94FD1711240C9442180E941F1870F372
:102F4000959FC1F3950F50E0551F629FF001729F4E
:102F5000BB27F00DB11D639FAA27F00DB11DAA1F5D
:102F6000649F6627B00DA11D661F829F2227B00DAA
:102F7000A11D621F739FB00DA11D621F839FA00D35
:102F8000611D221F749F3327A00D611D231F849F85
:102F9000600D211D822F762F6A2F11249F575040DC
:102FA0009AF0F1F088234AF0EE0FFF1FBB1F661F57
:102FB000771F881F91505040A9F79E3F510580F020
:102FC0000C94F7170C9442185F3FE4F3983ED4F347
:102FD000869577956795B795F795E7959F5FC1F7C4
:102FE000FE2B880F911D9695879597F9089597F96F
:102FF0009F6780E870E060E008959FEF80EC08959F
:1030000000240A94161617061806090608950024C7
:103010000A9412161306140605060895092E039441
:10302000000C11F4882352F0BB0F40F4BF2B11F4B5
:1030300060FF04C06F5F7F4F8F4F9F4F089557FD14
:103040009058440F551F59F05F3F71F04795880F16
:1030500097FB991F61F09F3F79F0879508951216AD
:1030600013061406551FF2CF4695F1DF08C0161659
:1030700017061806991FF1CF86957105610508940A
:103080000895E894BB2766277727CB0197F9089521
:103090002F923F924F925F926F927F928F929F9268
:1030A000AF92BF92CF92DF92EF92FF920F931F9356
:1030B000CF93DF93CDB7DEB7CA1BDB0B0FB6F89407
:1030C000DEBF0FBECDBF09942A88398848885F8447
:1030D0006E847D848C849B84AA84B984C884DF80B8
:1030E000EE80FD800C811B81AA81B981CE0FD11D9C
:1030F0000FB6F894DEBF0FBECDBFED010895505856
:10310000BB27AA270E9497180C940E180E9400183B
:1031100038F00E94071820F039F49F3F19F426F484
:103120000C94FD170EF4E095E7FB0C94F717E92FCC
:103130000E941F1858F3BA17620773078407950790
:1031400020F079F4A6F50C9441180EF4E0950B2EBE
:10315000BA2FA02D0B01B90190010C01CA01A001E9
:103160001124FF27591B99F0593F50F4503E68F144
:103170001A16F040A22F232F342F4427585FF3CF85
:10318000469537952795A795F0405395C9F77EF456
:103190001F16BA0B620B730B840BBAF09150A1F09F
:1031A000FF0FBB1F661F771F881FC2F70EC0BA0F25
:1031B000621F731F841F48F4879577956795B795AD
:1031C000F7959E3F08F0B0CF9395880F08F09927A8
:1031D000EE0F9795879508950E9400190C940E188C
:1031E0000E94071858F00E94001840F029F45F3F31
:1031F00029F00C94F71751110C9442180C94FD17F8
:103200000E941F1868F39923B1F3552391F3951B7E
:10321000550BBB27AA2762177307840738F09F5FF7
:103220005F4F220F331F441FAA1FA9F335D00E2E64
:103230003AF0E0E832D091505040E695001CCAF7D1
:103240002BD0FE2F29D0660F771F881FBB1F261794
:1032500037074807AB07B0E809F0BB0B802DBF016B
:10326000FF2793585F4F3AF09E3F510578F00C943A
:10327000F7170C9442185F3FE4F3983ED4F3869519
:1032800077956795B795F7959F5FC9F7880F911D5B
:103290009695879597F90895E1E0660F771F881F47
:1032A000BB1F621773078407BA0720F0621B730BFA
:1032B000840BBA0BEE1F88F7E09508950E9427183B
:1032C00088F09F5798F0B92F9927B751B0F0E1F0E7
:1032D000660F771F881F991F1AF0BA95C9F714C097
:1032E000B13091F00E944118B1E008950C9441185A
:1032F000672F782F8827B85F39F0B93FCCF38695D0
:1033000077956795B395D9F73EF49095809570952C
:1033100061957F4F8F4F9F4F08950E94661708F465
:103320008FEF08950E946617880B990B089597FBFD
:10333000072E16F4009407D077FD09D00E94CD190E
:1033400007FC05D03EF4909581959F4F08957095A8
:1033500061957F4F0895A1E21A2EAA1BBB1BFD01A8
:103360000DC0AA1FBB1FEE1FFF1FA217B307E40764
:10337000F50720F0A21BB30BE40BF50B661F771FBC
:10338000881F991F1A9469F760957095809590959C
:103390009B01AC01BD01CF010895AA1BBB1B51E1EC
:1033A00007C0AA1FBB1FA617B70710F0A61BB70BB5
:1033B000881F991F5A95A9F780959095BC01CD015A
:1033C0000895EE0FFF1F0590F491E02D09940F93DF
:1033D0001F93CF93DF938230910510F482E090E049
:1033E000E0913E06F0913F0620E030E0A0E0B0E042
:1033F000309719F140815181028113814817590793
:10340000C8F08417950769F4109731F012960C9361
:10341000129713961C9327C000933E0610933F0605
:1034200022C02115310519F04217530718F49A01EB
:10343000BD01EF01DF01F801DBCF21153105F9F006
:10344000281B390B2430310580F48A819B8161155A
:10345000710521F0FB019383828304C090933F06A2
:1034600080933E06FE01329644C0FE01E20FF31F38
:103470008193919322503109398328833AC0209156
:103480003C0630913D06232B41F4209102013091FE
:10349000030130933D0620933C06209100013091BA
:1034A00001012115310541F42DB73EB740910401CA
:1034B00050910501241B350BE0913C06F0913D062F
:1034C000E217F307A0F42E1B3F0B2817390778F0FB
:1034D000AC014E5F5F4F2417350748F04E0F5F1F5A
:1034E00050933D0640933C068193919302C0E0E0E7
:1034F000F0E0CF01DF91CF911F910F910895CF930D
:10350000DF93009709F481C0FC0132971382128285
:10351000A0913E06B0913F06109781F42081318141
:10352000820F931F20913C0630913D0628173907E2
:1035300051F5F0933D06E0933C0667C0ED0120E0B5
:1035400030E0CE17DF0740F44A815B819E014115D0
:103550005105F1F0EA01F5CFD383C2834081518157
:10356000840F951FC817D90759F488819981840F52
:10357000951F0296918380838A819B8193838283A6
:103580002115310529F4F0933F06E0933E063DC036
:10359000E901FB83EA8349915991C40FD51FEC17C8
:1035A000FD0761F480819181840F951F0296E901E6
:1035B00099838883828193819B838A83E0E0F0E012
:1035C00012968D919C911397009719F0FD01DC01E3
:1035D000F7CF8D919C9111979D012E5F3F4F820FE8
:1035E000931F20913C0630913D062817390769F456
:1035F000309729F410923F0610923E0602C01382C3
:103600001282B0933D06A0933C06DF91CF910895BE
:10361000A0E0B0E0EEE0FBE10C944C18EC01009768
:1036200021F4CB010E94E719B4C0FC01E60FF71F9B
:103630009C0122503109E217F30708F4A8C0D90110
:103640000D911C91119706171707B0F00530110561
:1036500008F49BC0C80104978617970708F495C023
:1036600002501109061B170B019311936D937C9364
:10367000CF010E947F1A89C05B01A01AB10A4C01D8
:10368000800E911EA0913E06B0913F06612C712CD8
:10369000E12CF12C109709F446C08D919C91119763
:1036A000A815B905B1F56C0142E0C40ED11CCA14CD
:1036B000DB0478F14C018A189B08640142E0C40ED7
:1036C000D11C1296BC9012971396AC91B5E0CB1614
:1036D000D10440F0B282A38391828082D9016D939C
:1036E0007C9309C00E5F1F4F800F911FF9019183DA
:1036F0008083EB2DFA2FE114F10431F0D7011396FA
:10370000FC93EE93129741C0F0933F06E0933E0680
:103710003CC06816790608F43C017D0112960D90B4
:10372000BC91A02DB7CF80913C0690913D068816A4
:103730009906E1F466167706C8F48091000190912D
:103740000101009741F48DB79EB74091040150915B
:103750000501841B950BE817F907C8F4F0933D06A3
:10376000E0933C06F901718360830FC0CB010E9496
:10377000E7197C01009759F0A801BE010E94D31BF4
:10378000CE010E947F1AC70104C0CE0102C080E0B2
:1037900090E0CDB7DEB7EEE00C94681881E090E0E1
:1037A000F8940C94FB1BFB01DC0102C001900D920C
:1037B00041505040D8F70895FB01DC018D910190F4
:1037C00080190110D9F3990B0895FB01DC010190D8
:1037D0000D920020E1F70895FB01DC0141505040BB
:1037E00048F001900D920020C9F701C01D92415090
:1037F0005040E0F7089510E0CFEED0E004C0FE01A5
:103800000E94E1192196C03FD107C9F7F894FFCF74
:1038100000004006800000000000AE011B014501D1
:10382000FB0176015401680100000000AA027D023C
:10383000D9025102750261025202000000006309C0
:103840006703DC02C2076903000000006409650326
:10385000DC023508B5030000000000000000DC02B7
:10386000650965095E00BC007701414D3233323095
:1038700000636C720A007B227374617274223A00D6
:103880000D0A002C2276657273696F6E223A20222F
:10389000002C22636F756E7453656E736F727322A2
:1038A0003A00207D00D09DD0B520D0BCD0BED0B68F
:1038B000D0B5D0BC20D0BDD0B0D0B9D182D0B82046
:1038C000D0BFD0B5D180D0B2D0BED0B520D183D1B9
:1038D00081D182D180D0BED0B9D181D182D0B2D0B5
:1038E000BE0052007B2273656E735F636F756E74EA
:1038F000223A002C2273656E736F7273223A5B005A
:103900007B226572726F72223A2231303030303051
:103910002043616E277420666F756E64206669723D
:1039200073742073656E736F72227D007B20227327
:10393000656E736F725F6E756D626572223A002CF0
:10394000007B226572726F72223A22313030303041
:10395000312043616E277420666F756E642066693E
:103960007273742073656E736F72227D0047007BE3
:10397000226E756D5F73656E73223A20302C227350
:10398000656E735F7479706522203A2022414D3252
:10399000333230222C202273656E735F69642220DB
:1039A0003A20226E6F6E65222C2273656E735F560D
:1039B000616C223A207B202274656D70223A002CC3
:1039C000202268756D223A007D7D0057007B226EB3
:1039D000756D5F73656E73223A20302C2273656EAD
:1039E000735F7479706522203A2022776174657262
:1039F000222C202273656E735F696422203A202294
:103A00006E6F6E65222C2273656E735F56616C2239
:103A10003A207B2022766F6C74223A0056007B227B
:103A200076657273696F6E223A202200222C22483A
:103A300061726454797065223A226D6174744772C0
:103A40006F776E694D696E692028554E4F202B2087
:103A500035202A2044533138423230202B20414D2A
:103A600032333230202B20576174657220696E200A
:103A70007465727261206C6576656C29227D0048E0
:103A8000003F007B2270696E67223A22706F6E677A
:103A9000227D007B22636F6D6D616E64223A5B7BD9
:103AA0002252223A2276616C756520302073656E51
:103AB000736F72227D2C7B222F525B302D005D2292
:103AC0003A2276616C75652073656E736F72732030
:103AD000302D00227D2C7B2247223A22426F782013
:103AE000436C696D6174227D2C7B2257223A2277C8
:103AF0006174657220696E207465727261227D2C1A
:103B00007B2256223A22486172642076657273697C
:103B10006F6E227D2C7B22482F3F223A2248656C13
:103B2000702074686973206973206D7367227D5DEE
:103B30007D00312E313100202028323031392030C3
:103B400034203031292020006E616E00696E6600DD
:103B50006F7666002273656E736F725F6164647264
:103B60006573223A2022002220002C2274656D7099
:103B70006572617475746543223A20002C22746565
:0E3B80006D706572617475746546223A20009E
:107800000C94343C0C94513C0C94513C0C94513CE1
:107810000C94513C0C94513C0C94513C0C94513CB4
:107820000C94513C0C94513C0C94513C0C94513CA4
:107830000C94513C0C94513C0C94513C0C94513C94
:107840000C94513C0C94513C0C94513C0C94513C84
:107850000C94513C0C94513C0C94513C0C94513C74
:107860000C94513C0C94513C11241FBECFEFD8E036
:10787000DEBFCDBF11E0A0E0B1E0ECE9FFE702C060
:1078800005900D92A230B107D9F712E0A2E0B1E065
:1078900001C01D92AD30B107E1F70E942D3D0C945F
:1078A000CC3F0C94003C982F959595959595959582
:1078B000905D8F708A307CF0282F295A8091C0000B
:1078C00085FFFCCF9093C6008091C00085FFFCCF60
:1078D0002093C6000895282F205DF0CF982F809127
:1078E000C00085FFFCCF9093C6000895EF92FF92F1
:1078F0000F931F93EE24FF2487018091C00087FD22
:1079000017C00894E11CF11C011D111D81E4E8164B
:1079100082E4F8068FE0080780E0180770F3E09132
:107920000401F091050109958091C00087FFE9CF1E
:107930008091C6001F910F91FF90EF9008950E94D3
:10794000763C982F8091C00085FFFCCF9093C600B5
:1079500091362CF490330CF09053892F089597555D
:10796000892F08951F930E949F3C182F0E949F3CCF
:107970001295107F810F1F9108951F93182F882350
:1079800021F00E94763C1150E1F71F9108951F935A
:10799000182F0E94763C803249F0809103018F5F5E
:1079A000809303018530C1F01F9108958091C0003C
:1079B00085FFFCCF84E18093C6008091C00085FFE5
:1079C000FCCF1093C6008091C00085FFFCCF80E102
:1079D0008093C6001F910895E0910401F091050184
:1079E00009951F9108950E94763C803241F0809164
:1079F00003018F5F80930301853081F008958091AA
:107A0000C00085FFFCCF84E18093C6008091C00058
:107A100085FFFCCF80E18093C6000895E0910401CA
:107A2000F09105010995089540E951E08823A1F0FE
:107A30002D9A28EE33E0FA013197F1F721503040CA
:107A4000D1F72D9828EE33E0FA013197F1F7215064
:107A50003040D1F7815061F708953F924F925F9285
:107A60006F927F928F929F92AF92BF92CF92DF924E
:107A7000EF92FF920F931F93CF93DF93000080E16B
:107A80008093C4001092C50088E18093C10086E015
:107A90008093C2005098589A259A81E00E94143D24
:107AA00024E1F22E9EE1E92E85E9D82E0FE0C02ECA
:107AB00010E1B12EAA24A394B1E49B2EA6E58A2E50
:107AC000F2E57F2EE0E26E2E79E4572E63E5462E36
:107AD00050E5352E0E94763C8033B1F18133B9F107
:107AE000803409F46FC0813409F476C0823409F41B
:107AF00085C0853409F488C0803531F1823521F1A3
:107B0000813511F1853509F485C0863509F48DC0BC
:107B1000843609F496C0843709F403C1853709F423
:107B200072C1863709F466C0809103018F5F80932C
:107B30000301853079F6E0910401F0910501099582
:107B40000E94763C803351F60E94F33CC3CF0E94E2
:107B5000763C803249F78091C00085FFFCCFF092DF
:107B6000C6008091C00085FFFCCF9092C600809136
:107B7000C00085FFFCCF8092C6008091C00085FFC9
:107B8000FCCF7092C6008091C00085FFFCCF609250
:107B9000C6008091C00085FFFCCF5092C600809146
:107BA000C00085FFFCCF4092C6008091C00085FFD9
:107BB000FCCF3092C6008091C00085FFFCCFB09210
:107BC000C60088CF0E94763C863808F4BDCF0E945C
:107BD000763C0E94F33C7ECF0E94763C803809F4CC
:107BE0009CC0813809F40BC1823809F43CC1883942
:107BF00009F48FC080E00E94C73C6CCF84E10E94F2
:107C0000BD3C0E94F33C66CF85E00E94BD3C0E94D3
:107C1000F33C60CF0E94763C809306010E94763C44
:107C2000809307010E94F33C55CF0E94763C80333D
:107C300009F41DC183E00E94BD3C80E00E94C73C66
:107C400049CF0E94763C809309020E94763C809343
:107C5000080280910C028E7F80930C020E94763C79
:107C6000853409F415C18091080290910902892B8D
:107C700089F000E010E00E94763CF801E85FFE4FDA
:107C800080830F5F1F4F80910802909109020817AF
:107C9000190788F30E94763C803209F045CF809125
:107CA0000C0280FF01C16091060170910701660F0F
:107CB000771F7093070160930601A0910802B091AD
:107CC00009021097C9F0E8E0F1E09B01AD014E0F09
:107CD0005F1FF999FECF32BD21BD819180BDFA9A17
:107CE000F99A2F5F3F4FE417F50799F76A0F7B1F4B
:107CF00070930701609306018091C00085FFFCCF5F
:107D0000F092C6008091C00085FFFCCFB092C60003
:107D1000E1CE83E00E94C73CDDCE82E00E94C73CFA
:107D2000D9CE0E94763C809309020E94763C8093D3
:107D300008028091060190910701880F991F909386
:107D40000701809306010E94763C853409F4A6C0A1
:107D500080910C028E7F80930C020E94763C8032D0
:107D600009F0B8CE8091C00085FFFCCFF092C6002C
:107D7000609108027091090261157105B9F140E046
:107D800050E080910C02A82FA170B82FB27011C0E2
:107D9000BB2309F45CC0E0910601F0910701319624
:107DA000F0930701E09306014F5F5F4F46175707B7
:107DB000E8F4AA2369F3F999FECF209106013091E6
:107DC000070132BD21BDF89A90B58091C00085FFB2
:107DD000FCCF9093C6002F5F3F4F30930701209355
:107DE00006014F5F5F4F4617570718F38091C00099
:107DF00085FDE5CE8091C00085FFF8CFE0CE81E023
:107E00000E94C73C67CE0E94763C803209F08CCE3F
:107E10008091C00085FFFCCFF092C6008091C00029
:107E200085FFFCCFE092C6008091C00085FFFCCFAB
:107E3000D092C6008091C00085FFFCCFC092C600E2
:107E40008091C00085FFFCCFB092C60043CEE09188
:107E50000601F091070194918091C00085FFFCCF4D
:107E60009093C6009CCF80E10E94C73C33CE0E9415
:107E7000763C0E94763C182F0E94763C112309F430
:107E800083C0113009F484C08FE00E94C73C22CE29
:107E900080910C02816080930C02E5CE80910C02EF
:107EA000816080930C0259CF809107018823880F4D
:107EB000880B8A2180930B02809106019091070123
:107EC000880F991F90930701809306018091080203
:107ED00080FF09C080910802909109020196909359
:107EE000090280930802F894F999FECF1127E091D6
:107EF0000601F0910701C8E0D1E08091080290915D
:107F00000902103091F40091570001700130D9F34B
:107F100003E000935700E89500915700017001308D
:107F2000D9F301E100935700E89509901990009169
:107F3000570001700130D9F301E000935700E89534
:107F40001395103498F011270091570001700130FB
:107F5000D9F305E000935700E895009157000170B0
:107F60000130D9F301E100935700E895329602976A
:107F700009F0C7CF103011F00296E5CF112480919F
:107F8000C00085FFB9CEBCCE8EE10E94C73CA2CD19
:0C7F900085E90E94C73C9ECDF894FFCF0D
:027F9C00800063
:040000030000780081
:00000001FF
